{
  "contractName": "MemoryToken",
  "abi": [
    {
      "inputs": [],
      "stateMutability": "nonpayable",
      "type": "constructor"
    },
    {
      "anonymous": false,
      "inputs": [
        {
          "indexed": true,
          "internalType": "address",
          "name": "owner",
          "type": "address"
        },
        {
          "indexed": true,
          "internalType": "address",
          "name": "approved",
          "type": "address"
        },
        {
          "indexed": true,
          "internalType": "uint256",
          "name": "tokenId",
          "type": "uint256"
        }
      ],
      "name": "Approval",
      "type": "event"
    },
    {
      "anonymous": false,
      "inputs": [
        {
          "indexed": true,
          "internalType": "address",
          "name": "owner",
          "type": "address"
        },
        {
          "indexed": true,
          "internalType": "address",
          "name": "operator",
          "type": "address"
        },
        {
          "indexed": false,
          "internalType": "bool",
          "name": "approved",
          "type": "bool"
        }
      ],
      "name": "ApprovalForAll",
      "type": "event"
    },
    {
      "anonymous": false,
      "inputs": [
        {
          "indexed": true,
          "internalType": "address",
          "name": "from",
          "type": "address"
        },
        {
          "indexed": true,
          "internalType": "address",
          "name": "to",
          "type": "address"
        },
        {
          "indexed": true,
          "internalType": "uint256",
          "name": "tokenId",
          "type": "uint256"
        }
      ],
      "name": "Transfer",
      "type": "event"
    },
    {
      "inputs": [
        {
          "internalType": "address",
          "name": "to",
          "type": "address"
        },
        {
          "internalType": "uint256",
          "name": "tokenId",
          "type": "uint256"
        }
      ],
      "name": "approve",
      "outputs": [],
      "stateMutability": "nonpayable",
      "type": "function"
    },
    {
      "inputs": [
        {
          "internalType": "address",
          "name": "owner",
          "type": "address"
        }
      ],
      "name": "balanceOf",
      "outputs": [
        {
          "internalType": "uint256",
          "name": "",
          "type": "uint256"
        }
      ],
      "stateMutability": "view",
      "type": "function",
      "constant": true
    },
    {
      "inputs": [
        {
          "internalType": "uint256",
          "name": "tokenId",
          "type": "uint256"
        }
      ],
      "name": "getApproved",
      "outputs": [
        {
          "internalType": "address",
          "name": "",
          "type": "address"
        }
      ],
      "stateMutability": "view",
      "type": "function",
      "constant": true
    },
    {
      "inputs": [
        {
          "internalType": "address",
          "name": "owner",
          "type": "address"
        },
        {
          "internalType": "address",
          "name": "operator",
          "type": "address"
        }
      ],
      "name": "isApprovedForAll",
      "outputs": [
        {
          "internalType": "bool",
          "name": "",
          "type": "bool"
        }
      ],
      "stateMutability": "view",
      "type": "function",
      "constant": true
    },
    {
      "inputs": [],
      "name": "name",
      "outputs": [
        {
          "internalType": "string",
          "name": "",
          "type": "string"
        }
      ],
      "stateMutability": "view",
      "type": "function",
      "constant": true
    },
    {
      "inputs": [
        {
          "internalType": "uint256",
          "name": "tokenId",
          "type": "uint256"
        }
      ],
      "name": "ownerOf",
      "outputs": [
        {
          "internalType": "address",
          "name": "",
          "type": "address"
        }
      ],
      "stateMutability": "view",
      "type": "function",
      "constant": true
    },
    {
      "inputs": [
        {
          "internalType": "address",
          "name": "from",
          "type": "address"
        },
        {
          "internalType": "address",
          "name": "to",
          "type": "address"
        },
        {
          "internalType": "uint256",
          "name": "tokenId",
          "type": "uint256"
        }
      ],
      "name": "safeTransferFrom",
      "outputs": [],
      "stateMutability": "nonpayable",
      "type": "function"
    },
    {
      "inputs": [
        {
          "internalType": "address",
          "name": "from",
          "type": "address"
        },
        {
          "internalType": "address",
          "name": "to",
          "type": "address"
        },
        {
          "internalType": "uint256",
          "name": "tokenId",
          "type": "uint256"
        },
        {
          "internalType": "bytes",
          "name": "_data",
          "type": "bytes"
        }
      ],
      "name": "safeTransferFrom",
      "outputs": [],
      "stateMutability": "nonpayable",
      "type": "function"
    },
    {
      "inputs": [
        {
          "internalType": "address",
          "name": "operator",
          "type": "address"
        },
        {
          "internalType": "bool",
          "name": "approved",
          "type": "bool"
        }
      ],
      "name": "setApprovalForAll",
      "outputs": [],
      "stateMutability": "nonpayable",
      "type": "function"
    },
    {
      "inputs": [],
      "name": "symbol",
      "outputs": [
        {
          "internalType": "string",
          "name": "",
          "type": "string"
        }
      ],
      "stateMutability": "view",
      "type": "function",
      "constant": true
    },
    {
      "inputs": [
        {
          "internalType": "uint256",
          "name": "index",
          "type": "uint256"
        }
      ],
      "name": "tokenByIndex",
      "outputs": [
        {
          "internalType": "uint256",
          "name": "",
          "type": "uint256"
        }
      ],
      "stateMutability": "view",
      "type": "function",
      "constant": true
    },
    {
      "inputs": [
        {
          "internalType": "address",
          "name": "owner",
          "type": "address"
        },
        {
          "internalType": "uint256",
          "name": "index",
          "type": "uint256"
        }
      ],
      "name": "tokenOfOwnerByIndex",
      "outputs": [
        {
          "internalType": "uint256",
          "name": "",
          "type": "uint256"
        }
      ],
      "stateMutability": "view",
      "type": "function",
      "constant": true
    },
    {
      "inputs": [],
      "name": "totalSupply",
      "outputs": [
        {
          "internalType": "uint256",
          "name": "",
          "type": "uint256"
        }
      ],
      "stateMutability": "view",
      "type": "function",
      "constant": true
    },
    {
      "inputs": [
        {
          "internalType": "address",
          "name": "from",
          "type": "address"
        },
        {
          "internalType": "address",
          "name": "to",
          "type": "address"
        },
        {
          "internalType": "uint256",
          "name": "tokenId",
          "type": "uint256"
        }
      ],
      "name": "transferFrom",
      "outputs": [],
      "stateMutability": "nonpayable",
      "type": "function"
    },
    {
      "inputs": [
        {
          "internalType": "uint256",
          "name": "tokenId",
          "type": "uint256"
        }
      ],
      "name": "tokenURI",
      "outputs": [
        {
          "internalType": "string",
          "name": "",
          "type": "string"
        }
      ],
      "stateMutability": "view",
      "type": "function",
      "constant": true
    },
    {
      "inputs": [
        {
          "internalType": "bytes4",
          "name": "interfaceId",
          "type": "bytes4"
        }
      ],
      "name": "supportsInterface",
      "outputs": [
        {
          "internalType": "bool",
          "name": "",
          "type": "bool"
        }
      ],
      "stateMutability": "view",
      "type": "function",
      "constant": true
    },
    {
      "inputs": [
        {
          "internalType": "address",
          "name": "_to",
          "type": "address"
        },
        {
          "internalType": "string",
          "name": "_tokenURI",
          "type": "string"
        }
      ],
      "name": "mint",
      "outputs": [
        {
          "internalType": "bool",
          "name": "",
          "type": "bool"
        }
      ],
      "stateMutability": "nonpayable",
      "type": "function"
    }
  ],
  "bytecode": "0x60806040523480156200001157600080fd5b506040518060400160405280600c81526020017f4d656d6f727920546f6b656e00000000000000000000000000000000000000008152506040518060400160405280600681526020017f4d454d4f52590000000000000000000000000000000000000000000000000000815250816000908051906020019062000096929190620000b8565b508060019080519060200190620000af929190620000b8565b505050620001cd565b828054620000c69062000168565b90600052602060002090601f016020900481019282620000ea576000855562000136565b82601f106200010557805160ff191683800117855562000136565b8280016001018555821562000136579182015b828111156200013557825182559160200191906001019062000118565b5b50905062000145919062000149565b5090565b5b80821115620001645760008160009055506001016200014a565b5090565b600060028204905060018216806200018157607f821691505b602082108114156200019857620001976200019e565b5b50919050565b7f4e487b7100000000000000000000000000000000000000000000000000000000600052602260045260246000fd5b61337980620001dd6000396000f3fe608060405234801561001057600080fd5b506004361061010b5760003560e01c80634f6ccce7116100a2578063a22cb46511610071578063a22cb465146102de578063b88d4fde146102fa578063c87b56dd14610316578063d0def52114610346578063e985e9c5146103765761010b565b80634f6ccce7146102305780636352211e1461026057806370a082311461029057806395d89b41146102c05761010b565b806318160ddd116100de57806318160ddd146101aa57806323b872dd146101c85780632f745c59146101e457806342842e0e146102145761010b565b806301ffc9a71461011057806306fdde0314610140578063081812fc1461015e578063095ea7b31461018e575b600080fd5b61012a60048036038101906101259190612284565b6103a6565b60405161013791906126dc565b60405180910390f35b6101486103b8565b60405161015591906126f7565b60405180910390f35b610178600480360381019061017391906122de565b61044a565b6040516101859190612675565b60405180910390f35b6101a860048036038101906101a39190612244565b6104cf565b005b6101b26105e7565b6040516101bf9190612959565b60405180910390f35b6101e260048036038101906101dd91906120d2565b6105f4565b005b6101fe60048036038101906101f99190612244565b610654565b60405161020b9190612959565b60405180910390f35b61022e600480360381019061022991906120d2565b6106f9565b005b61024a600480360381019061024591906122de565b610719565b6040516102579190612959565b60405180910390f35b61027a600480360381019061027591906122de565b61078a565b6040516102879190612675565b60405180910390f35b6102aa60048036038101906102a59190612065565b61083c565b6040516102b79190612959565b60405180910390f35b6102c86108f4565b6040516102d591906126f7565b60405180910390f35b6102f860048036038101906102f391906121a8565b610986565b005b610314600480360381019061030f9190612125565b610b07565b005b610330600480360381019061032b91906122de565b610b69565b60405161033d91906126f7565b60405180910390f35b610360600480360381019061035b91906121e8565b610b7b565b60405161036d91906126dc565b60405180910390f35b610390600480360381019061038b9190612092565b610bba565b60405161039d91906126dc565b60405180910390f35b60006103b182610c4e565b9050919050565b6060600080546103c790612baf565b80601f01602080910402602001604051908101604052809291908181526020018280546103f390612baf565b80156104405780601f1061041557610100808354040283529160200191610440565b820191906000526020600020905b81548152906001019060200180831161042357829003601f168201915b5050505050905090565b600061045582610cc8565b610494576040517f08c379a000000000000000000000000000000000000000000000000000000000815260040161048b90612899565b60405180910390fd5b6004600083815260200190815260200160002060009054906101000a900473ffffffffffffffffffffffffffffffffffffffff169050919050565b60006104da8261078a565b90508073ffffffffffffffffffffffffffffffffffffffff168373ffffffffffffffffffffffffffffffffffffffff16141561054b576040517f08c379a0000000000000000000000000000000000000000000000000000000008152600401610542906128f9565b60405180910390fd5b8073ffffffffffffffffffffffffffffffffffffffff1661056a610d34565b73ffffffffffffffffffffffffffffffffffffffff161480610599575061059881610593610d34565b610bba565b5b6105d8576040517f08c379a00000000000000000000000000000000000000000000000000000000081526004016105cf906127d9565b60405180910390fd5b6105e28383610d3c565b505050565b6000600880549050905090565b6106056105ff610d34565b82610df5565b610644576040517f08c379a000000000000000000000000000000000000000000000000000000000815260040161063b90612919565b60405180910390fd5b61064f838383610ed3565b505050565b600061065f8361083c565b82106106a0576040517f08c379a000000000000000000000000000000000000000000000000000000000815260040161069790612719565b60405180910390fd5b600660008473ffffffffffffffffffffffffffffffffffffffff1673ffffffffffffffffffffffffffffffffffffffff168152602001908152602001600020600083815260200190815260200160002054905092915050565b61071483838360405180602001604052806000815250610b07565b505050565b60006107236105e7565b8210610764576040517f08c379a000000000000000000000000000000000000000000000000000000000815260040161075b90612939565b60405180910390fd5b6008828154811061077857610777612d48565b5b90600052602060002001549050919050565b6000806002600084815260200190815260200160002060009054906101000a900473ffffffffffffffffffffffffffffffffffffffff169050600073ffffffffffffffffffffffffffffffffffffffff168173ffffffffffffffffffffffffffffffffffffffff161415610833576040517f08c379a000000000000000000000000000000000000000000000000000000000815260040161082a90612819565b60405180910390fd5b80915050919050565b60008073ffffffffffffffffffffffffffffffffffffffff168273ffffffffffffffffffffffffffffffffffffffff1614156108ad576040517f08c379a00000000000000000000000000000000000000000000000000000000081526004016108a4906127f9565b60405180910390fd5b600360008373ffffffffffffffffffffffffffffffffffffffff1673ffffffffffffffffffffffffffffffffffffffff168152602001908152602001600020549050919050565b60606001805461090390612baf565b80601f016020809104026020016040519081016040528092919081815260200182805461092f90612baf565b801561097c5780601f106109515761010080835404028352916020019161097c565b820191906000526020600020905b81548152906001019060200180831161095f57829003601f168201915b5050505050905090565b61098e610d34565b73ffffffffffffffffffffffffffffffffffffffff168273ffffffffffffffffffffffffffffffffffffffff1614156109fc576040517f08c379a00000000000000000000000000000000000000000000000000000000081526004016109f390612799565b60405180910390fd5b8060056000610a09610d34565b73ffffffffffffffffffffffffffffffffffffffff1673ffffffffffffffffffffffffffffffffffffffff16815260200190815260200160002060008473ffffffffffffffffffffffffffffffffffffffff1673ffffffffffffffffffffffffffffffffffffffff16815260200190815260200160002060006101000a81548160ff0219169083151502179055508173ffffffffffffffffffffffffffffffffffffffff16610ab6610d34565b73ffffffffffffffffffffffffffffffffffffffff167f17307eab39ab6107e8899845ad3d59bd9653f200f220920489ca2b5937696c3183604051610afb91906126dc565b60405180910390a35050565b610b18610b12610d34565b83610df5565b610b57576040517f08c379a0000000000000000000000000000000000000000000000000000000008152600401610b4e90612919565b60405180910390fd5b610b638484848461112f565b50505050565b6060610b748261118b565b9050919050565b600080610b996001610b8b6105e7565b6112dd90919063ffffffff16565b9050610ba584826112f3565b610baf81846114c1565b600191505092915050565b6000600560008473ffffffffffffffffffffffffffffffffffffffff1673ffffffffffffffffffffffffffffffffffffffff16815260200190815260200160002060008373ffffffffffffffffffffffffffffffffffffffff1673ffffffffffffffffffffffffffffffffffffffff16815260200190815260200160002060009054906101000a900460ff16905092915050565b60007f780e9d63000000000000000000000000000000000000000000000000000000007bffffffffffffffffffffffffffffffffffffffffffffffffffffffff1916827bffffffffffffffffffffffffffffffffffffffffffffffffffffffff19161480610cc15750610cc082611535565b5b9050919050565b60008073ffffffffffffffffffffffffffffffffffffffff166002600084815260200190815260200160002060009054906101000a900473ffffffffffffffffffffffffffffffffffffffff1673ffffffffffffffffffffffffffffffffffffffff1614159050919050565b600033905090565b816004600083815260200190815260200160002060006101000a81548173ffffffffffffffffffffffffffffffffffffffff021916908373ffffffffffffffffffffffffffffffffffffffff160217905550808273ffffffffffffffffffffffffffffffffffffffff16610daf8361078a565b73ffffffffffffffffffffffffffffffffffffffff167f8c5be1e5ebec7d5bd14f71427d1e84f3dd0314c0f7b2291e5b200ac8c7c3b92560405160405180910390a45050565b6000610e0082610cc8565b610e3f576040517f08c379a0000000000000000000000000000000000000000000000000000000008152600401610e36906127b9565b60405180910390fd5b6000610e4a8361078a565b90508073ffffffffffffffffffffffffffffffffffffffff168473ffffffffffffffffffffffffffffffffffffffff161480610eb957508373ffffffffffffffffffffffffffffffffffffffff16610ea18461044a565b73ffffffffffffffffffffffffffffffffffffffff16145b80610eca5750610ec98185610bba565b5b91505092915050565b8273ffffffffffffffffffffffffffffffffffffffff16610ef38261078a565b73ffffffffffffffffffffffffffffffffffffffff1614610f49576040517f08c379a0000000000000000000000000000000000000000000000000000000008152600401610f40906128b9565b60405180910390fd5b600073ffffffffffffffffffffffffffffffffffffffff168273ffffffffffffffffffffffffffffffffffffffff161415610fb9576040517f08c379a0000000000000000000000000000000000000000000000000000000008152600401610fb090612779565b60405180910390fd5b610fc4838383611617565b610fcf600082610d3c565b6001600360008573ffffffffffffffffffffffffffffffffffffffff1673ffffffffffffffffffffffffffffffffffffffff168152602001908152602001600020600082825461101f9190612ac5565b925050819055506001600360008473ffffffffffffffffffffffffffffffffffffffff1673ffffffffffffffffffffffffffffffffffffffff16815260200190815260200160002060008282546110769190612a3e565b92505081905550816002600083815260200190815260200160002060006101000a81548173ffffffffffffffffffffffffffffffffffffffff021916908373ffffffffffffffffffffffffffffffffffffffff160217905550808273ffffffffffffffffffffffffffffffffffffffff168473ffffffffffffffffffffffffffffffffffffffff167fddf252ad1be2c89b69c2b068fc378daa952ba7f163c4a11628f55a4df523b3ef60405160405180910390a4505050565b61113a848484610ed3565b61114684848484611627565b611185576040517f08c379a000000000000000000000000000000000000000000000000000000000815260040161117c90612739565b60405180910390fd5b50505050565b606061119682610cc8565b6111d5576040517f08c379a00000000000000000000000000000000000000000000000000000000081526004016111cc90612879565b60405180910390fd5b6000600a600084815260200190815260200160002080546111f590612baf565b80601f016020809104026020016040519081016040528092919081815260200182805461122190612baf565b801561126e5780601f106112435761010080835404028352916020019161126e565b820191906000526020600020905b81548152906001019060200180831161125157829003601f168201915b50505050509050600061127f6117be565b90506000815114156112955781925050506112d8565b6000825111156112ca5780826040516020016112b2929190612651565b604051602081830303815290604052925050506112d8565b6112d3846117d5565b925050505b919050565b600081836112eb9190612a3e565b905092915050565b600073ffffffffffffffffffffffffffffffffffffffff168273ffffffffffffffffffffffffffffffffffffffff161415611363576040517f08c379a000000000000000000000000000000000000000000000000000000000815260040161135a90612859565b60405180910390fd5b61136c81610cc8565b156113ac576040517f08c379a00000000000000000000000000000000000000000000000000000000081526004016113a390612759565b60405180910390fd5b6113b860008383611617565b6001600360008473ffffffffffffffffffffffffffffffffffffffff1673ffffffffffffffffffffffffffffffffffffffff16815260200190815260200160002060008282546114089190612a3e565b92505081905550816002600083815260200190815260200160002060006101000a81548173ffffffffffffffffffffffffffffffffffffffff021916908373ffffffffffffffffffffffffffffffffffffffff160217905550808273ffffffffffffffffffffffffffffffffffffffff16600073ffffffffffffffffffffffffffffffffffffffff167fddf252ad1be2c89b69c2b068fc378daa952ba7f163c4a11628f55a4df523b3ef60405160405180910390a45050565b6114ca82610cc8565b611509576040517f08c379a000000000000000000000000000000000000000000000000000000000815260040161150090612839565b60405180910390fd5b80600a60008481526020019081526020016000209080519060200190611530929190611e79565b505050565b60007f80ac58cd000000000000000000000000000000000000000000000000000000007bffffffffffffffffffffffffffffffffffffffffffffffffffffffff1916827bffffffffffffffffffffffffffffffffffffffffffffffffffffffff1916148061160057507f5b5e139f000000000000000000000000000000000000000000000000000000007bffffffffffffffffffffffffffffffffffffffffffffffffffffffff1916827bffffffffffffffffffffffffffffffffffffffffffffffffffffffff1916145b80611610575061160f8261187c565b5b9050919050565b6116228383836118e6565b505050565b60006116488473ffffffffffffffffffffffffffffffffffffffff166119fa565b156117b1578373ffffffffffffffffffffffffffffffffffffffff1663150b7a02611671610d34565b8786866040518563ffffffff1660e01b81526004016116939493929190612690565b602060405180830381600087803b1580156116ad57600080fd5b505af19250505080156116de57506040513d601f19601f820116820180604052508101906116db91906122b1565b60015b611761573d806000811461170e576040519150601f19603f3d011682016040523d82523d6000602084013e611713565b606091505b50600081511415611759576040517f08c379a000000000000000000000000000000000000000000000000000000000815260040161175090612739565b60405180910390fd5b805181602001fd5b63150b7a0260e01b7bffffffffffffffffffffffffffffffffffffffffffffffffffffffff1916817bffffffffffffffffffffffffffffffffffffffffffffffffffffffff1916149150506117b6565b600190505b949350505050565b606060405180602001604052806000815250905090565b60606117e082610cc8565b61181f576040517f08c379a0000000000000000000000000000000000000000000000000000000008152600401611816906128d9565b60405180910390fd5b60006118296117be565b905060008151116118495760405180602001604052806000815250611874565b8061185384611a0d565b604051602001611864929190612651565b6040516020818303038152906040525b915050919050565b60007f01ffc9a7000000000000000000000000000000000000000000000000000000007bffffffffffffffffffffffffffffffffffffffffffffffffffffffff1916827bffffffffffffffffffffffffffffffffffffffffffffffffffffffff1916149050919050565b6118f1838383611b6e565b600073ffffffffffffffffffffffffffffffffffffffff168373ffffffffffffffffffffffffffffffffffffffff1614156119345761192f81611b73565b611973565b8173ffffffffffffffffffffffffffffffffffffffff168373ffffffffffffffffffffffffffffffffffffffff1614611972576119718382611bbc565b5b5b600073ffffffffffffffffffffffffffffffffffffffff168273ffffffffffffffffffffffffffffffffffffffff1614156119b6576119b181611d29565b6119f5565b8273ffffffffffffffffffffffffffffffffffffffff168273ffffffffffffffffffffffffffffffffffffffff16146119f4576119f38282611dfa565b5b5b505050565b600080823b905060008111915050919050565b60606000821415611a55576040518060400160405280600181526020017f30000000000000000000000000000000000000000000000000000000000000008152509050611b69565b600082905060005b60008214611a87578080611a7090612c12565b915050600a82611a809190612a94565b9150611a5d565b60008167ffffffffffffffff811115611aa357611aa2612d77565b5b6040519080825280601f01601f191660200182016040528015611ad55781602001600182028036833780820191505090505b5090505b60008514611b6257600182611aee9190612ac5565b9150600a85611afd9190612c5b565b6030611b099190612a3e565b60f81b818381518110611b1f57611b1e612d48565b5b60200101907effffffffffffffffffffffffffffffffffffffffffffffffffffffffffffff1916908160001a905350600a85611b5b9190612a94565b9450611ad9565b8093505050505b919050565b505050565b6008805490506009600083815260200190815260200160002081905550600881908060018154018082558091505060019003906000526020600020016000909190919091505550565b60006001611bc98461083c565b611bd39190612ac5565b9050600060076000848152602001908152602001600020549050818114611cb8576000600660008673ffffffffffffffffffffffffffffffffffffffff1673ffffffffffffffffffffffffffffffffffffffff168152602001908152602001600020600084815260200190815260200160002054905080600660008773ffffffffffffffffffffffffffffffffffffffff1673ffffffffffffffffffffffffffffffffffffffff168152602001908152602001600020600084815260200190815260200160002081905550816007600083815260200190815260200160002081905550505b6007600084815260200190815260200160002060009055600660008573ffffffffffffffffffffffffffffffffffffffff1673ffffffffffffffffffffffffffffffffffffffff16815260200190815260200160002060008381526020019081526020016000206000905550505050565b60006001600880549050611d3d9190612ac5565b9050600060096000848152602001908152602001600020549050600060088381548110611d6d57611d6c612d48565b5b906000526020600020015490508060088381548110611d8f57611d8e612d48565b5b906000526020600020018190555081600960008381526020019081526020016000208190555060096000858152602001908152602001600020600090556008805480611dde57611ddd612d19565b5b6001900381819060005260206000200160009055905550505050565b6000611e058361083c565b905081600660008573ffffffffffffffffffffffffffffffffffffffff1673ffffffffffffffffffffffffffffffffffffffff168152602001908152602001600020600083815260200190815260200160002081905550806007600084815260200190815260200160002081905550505050565b828054611e8590612baf565b90600052602060002090601f016020900481019282611ea75760008555611eee565b82601f10611ec057805160ff1916838001178555611eee565b82800160010185558215611eee579182015b82811115611eed578251825591602001919060010190611ed2565b5b509050611efb9190611eff565b5090565b5b80821115611f18576000816000905550600101611f00565b5090565b6000611f2f611f2a84612999565b612974565b905082815260208101848484011115611f4b57611f4a612dab565b5b611f56848285612b6d565b509392505050565b6000611f71611f6c846129ca565b612974565b905082815260208101848484011115611f8d57611f8c612dab565b5b611f98848285612b6d565b509392505050565b600081359050611faf816132e7565b92915050565b600081359050611fc4816132fe565b92915050565b600081359050611fd981613315565b92915050565b600081519050611fee81613315565b92915050565b600082601f83011261200957612008612da6565b5b8135612019848260208601611f1c565b91505092915050565b600082601f83011261203757612036612da6565b5b8135612047848260208601611f5e565b91505092915050565b60008135905061205f8161332c565b92915050565b60006020828403121561207b5761207a612db5565b5b600061208984828501611fa0565b91505092915050565b600080604083850312156120a9576120a8612db5565b5b60006120b785828601611fa0565b92505060206120c885828601611fa0565b9150509250929050565b6000806000606084860312156120eb576120ea612db5565b5b60006120f986828701611fa0565b935050602061210a86828701611fa0565b925050604061211b86828701612050565b9150509250925092565b6000806000806080858703121561213f5761213e612db5565b5b600061214d87828801611fa0565b945050602061215e87828801611fa0565b935050604061216f87828801612050565b925050606085013567ffffffffffffffff8111156121905761218f612db0565b5b61219c87828801611ff4565b91505092959194509250565b600080604083850312156121bf576121be612db5565b5b60006121cd85828601611fa0565b92505060206121de85828601611fb5565b9150509250929050565b600080604083850312156121ff576121fe612db5565b5b600061220d85828601611fa0565b925050602083013567ffffffffffffffff81111561222e5761222d612db0565b5b61223a85828601612022565b9150509250929050565b6000806040838503121561225b5761225a612db5565b5b600061226985828601611fa0565b925050602061227a85828601612050565b9150509250929050565b60006020828403121561229a57612299612db5565b5b60006122a884828501611fca565b91505092915050565b6000602082840312156122c7576122c6612db5565b5b60006122d584828501611fdf565b91505092915050565b6000602082840312156122f4576122f3612db5565b5b600061230284828501612050565b91505092915050565b61231481612af9565b82525050565b61232381612b0b565b82525050565b6000612334826129fb565b61233e8185612a11565b935061234e818560208601612b7c565b61235781612dba565b840191505092915050565b600061236d82612a06565b6123778185612a22565b9350612387818560208601612b7c565b61239081612dba565b840191505092915050565b60006123a682612a06565b6123b08185612a33565b93506123c0818560208601612b7c565b80840191505092915050565b60006123d9602b83612a22565b91506123e482612dcb565b604082019050919050565b60006123fc603283612a22565b915061240782612e1a565b604082019050919050565b600061241f601c83612a22565b915061242a82612e69565b602082019050919050565b6000612442602483612a22565b915061244d82612e92565b604082019050919050565b6000612465601983612a22565b915061247082612ee1565b602082019050919050565b6000612488602c83612a22565b915061249382612f0a565b604082019050919050565b60006124ab603883612a22565b91506124b682612f59565b604082019050919050565b60006124ce602a83612a22565b91506124d982612fa8565b604082019050919050565b60006124f1602983612a22565b91506124fc82612ff7565b604082019050919050565b6000612514602e83612a22565b915061251f82613046565b604082019050919050565b6000612537602083612a22565b915061254282613095565b602082019050919050565b600061255a603183612a22565b9150612565826130be565b604082019050919050565b600061257d602c83612a22565b91506125888261310d565b604082019050919050565b60006125a0602983612a22565b91506125ab8261315c565b604082019050919050565b60006125c3602f83612a22565b91506125ce826131ab565b604082019050919050565b60006125e6602183612a22565b91506125f1826131fa565b604082019050919050565b6000612609603183612a22565b915061261482613249565b604082019050919050565b600061262c602c83612a22565b915061263782613298565b604082019050919050565b61264b81612b63565b82525050565b600061265d828561239b565b9150612669828461239b565b91508190509392505050565b600060208201905061268a600083018461230b565b92915050565b60006080820190506126a5600083018761230b565b6126b2602083018661230b565b6126bf6040830185612642565b81810360608301526126d18184612329565b905095945050505050565b60006020820190506126f1600083018461231a565b92915050565b600060208201905081810360008301526127118184612362565b905092915050565b60006020820190508181036000830152612732816123cc565b9050919050565b60006020820190508181036000830152612752816123ef565b9050919050565b6000602082019050818103600083015261277281612412565b9050919050565b6000602082019050818103600083015261279281612435565b9050919050565b600060208201905081810360008301526127b281612458565b9050919050565b600060208201905081810360008301526127d28161247b565b9050919050565b600060208201905081810360008301526127f28161249e565b9050919050565b60006020820190508181036000830152612812816124c1565b9050919050565b60006020820190508181036000830152612832816124e4565b9050919050565b6000602082019050818103600083015261285281612507565b9050919050565b600060208201905081810360008301526128728161252a565b9050919050565b600060208201905081810360008301526128928161254d565b9050919050565b600060208201905081810360008301526128b281612570565b9050919050565b600060208201905081810360008301526128d281612593565b9050919050565b600060208201905081810360008301526128f2816125b6565b9050919050565b60006020820190508181036000830152612912816125d9565b9050919050565b60006020820190508181036000830152612932816125fc565b9050919050565b600060208201905081810360008301526129528161261f565b9050919050565b600060208201905061296e6000830184612642565b92915050565b600061297e61298f565b905061298a8282612be1565b919050565b6000604051905090565b600067ffffffffffffffff8211156129b4576129b3612d77565b5b6129bd82612dba565b9050602081019050919050565b600067ffffffffffffffff8211156129e5576129e4612d77565b5b6129ee82612dba565b9050602081019050919050565b600081519050919050565b600081519050919050565b600082825260208201905092915050565b600082825260208201905092915050565b600081905092915050565b6000612a4982612b63565b9150612a5483612b63565b9250827fffffffffffffffffffffffffffffffffffffffffffffffffffffffffffffffff03821115612a8957612a88612c8c565b5b828201905092915050565b6000612a9f82612b63565b9150612aaa83612b63565b925082612aba57612ab9612cbb565b5b828204905092915050565b6000612ad082612b63565b9150612adb83612b63565b925082821015612aee57612aed612c8c565b5b828203905092915050565b6000612b0482612b43565b9050919050565b60008115159050919050565b60007fffffffff0000000000000000000000000000000000000000000000000000000082169050919050565b600073ffffffffffffffffffffffffffffffffffffffff82169050919050565b6000819050919050565b82818337600083830152505050565b60005b83811015612b9a578082015181840152602081019050612b7f565b83811115612ba9576000848401525b50505050565b60006002820490506001821680612bc757607f821691505b60208210811415612bdb57612bda612cea565b5b50919050565b612bea82612dba565b810181811067ffffffffffffffff82111715612c0957612c08612d77565b5b80604052505050565b6000612c1d82612b63565b91507fffffffffffffffffffffffffffffffffffffffffffffffffffffffffffffffff821415612c5057612c4f612c8c565b5b600182019050919050565b6000612c6682612b63565b9150612c7183612b63565b925082612c8157612c80612cbb565b5b828206905092915050565b7f4e487b7100000000000000000000000000000000000000000000000000000000600052601160045260246000fd5b7f4e487b7100000000000000000000000000000000000000000000000000000000600052601260045260246000fd5b7f4e487b7100000000000000000000000000000000000000000000000000000000600052602260045260246000fd5b7f4e487b7100000000000000000000000000000000000000000000000000000000600052603160045260246000fd5b7f4e487b7100000000000000000000000000000000000000000000000000000000600052603260045260246000fd5b7f4e487b7100000000000000000000000000000000000000000000000000000000600052604160045260246000fd5b600080fd5b600080fd5b600080fd5b600080fd5b6000601f19601f8301169050919050565b7f455243373231456e756d657261626c653a206f776e657220696e646578206f7560008201527f74206f6620626f756e6473000000000000000000000000000000000000000000602082015250565b7f4552433732313a207472616e7366657220746f206e6f6e20455243373231526560008201527f63656976657220696d706c656d656e7465720000000000000000000000000000602082015250565b7f4552433732313a20746f6b656e20616c7265616479206d696e74656400000000600082015250565b7f4552433732313a207472616e7366657220746f20746865207a65726f2061646460008201527f7265737300000000000000000000000000000000000000000000000000000000602082015250565b7f4552433732313a20617070726f766520746f2063616c6c657200000000000000600082015250565b7f4552433732313a206f70657261746f7220717565727920666f72206e6f6e657860008201527f697374656e7420746f6b656e0000000000000000000000000000000000000000602082015250565b7f4552433732313a20617070726f76652063616c6c6572206973206e6f74206f7760008201527f6e6572206e6f7220617070726f76656420666f7220616c6c0000000000000000602082015250565b7f4552433732313a2062616c616e636520717565727920666f7220746865207a6560008201527f726f206164647265737300000000000000000000000000000000000000000000602082015250565b7f4552433732313a206f776e657220717565727920666f72206e6f6e657869737460008201527f656e7420746f6b656e0000000000000000000000000000000000000000000000602082015250565b7f45524337323155524953746f726167653a2055524920736574206f66206e6f6e60008201527f6578697374656e7420746f6b656e000000000000000000000000000000000000602082015250565b7f4552433732313a206d696e7420746f20746865207a65726f2061646472657373600082015250565b7f45524337323155524953746f726167653a2055524920717565727920666f722060008201527f6e6f6e6578697374656e7420746f6b656e000000000000000000000000000000602082015250565b7f4552433732313a20617070726f76656420717565727920666f72206e6f6e657860008201527f697374656e7420746f6b656e0000000000000000000000000000000000000000602082015250565b7f4552433732313a207472616e73666572206f6620746f6b656e2074686174206960008201527f73206e6f74206f776e0000000000000000000000000000000000000000000000602082015250565b7f4552433732314d657461646174613a2055524920717565727920666f72206e6f60008201527f6e6578697374656e7420746f6b656e0000000000000000000000000000000000602082015250565b7f4552433732313a20617070726f76616c20746f2063757272656e74206f776e6560008201527f7200000000000000000000000000000000000000000000000000000000000000602082015250565b7f4552433732313a207472616e736665722063616c6c6572206973206e6f74206f60008201527f776e6572206e6f7220617070726f766564000000000000000000000000000000602082015250565b7f455243373231456e756d657261626c653a20676c6f62616c20696e646578206f60008201527f7574206f6620626f756e64730000000000000000000000000000000000000000602082015250565b6132f081612af9565b81146132fb57600080fd5b50565b61330781612b0b565b811461331257600080fd5b50565b61331e81612b17565b811461332957600080fd5b50565b61333581612b63565b811461334057600080fd5b5056fea2646970667358221220a8133edf54b47a9d01396950abe324300008c57afe5c2f9fc8952cc60676748164736f6c63430008060033",
  "immutableReferences": {},
  "source": "// SPDX-License-Identifier: MIT\npragma solidity ^0.8.0;\n\nimport '@openzeppelin/contracts/token/ERC721/ERC721.sol';\nimport '@openzeppelin/contracts/token/ERC721/extensions/ERC721Enumerable.sol';\nimport '@openzeppelin/contracts/token/ERC721/extensions/ERC721URIStorage.sol';\nimport '@openzeppelin/contracts/utils/math/SafeMath.sol';\n\ncontract MemoryToken is ERC721, ERC721Enumerable, ERC721URIStorage {\n\tusing SafeMath for uint256;\n\n\tconstructor() ERC721('Memory Token', 'MEMORY') {}\n\n\tfunction _beforeTokenTransfer(\n\t\taddress from,\n\t\taddress to,\n\t\tuint256 tokenId\n\t) internal override(ERC721, ERC721Enumerable) {\n\t\tsuper._beforeTokenTransfer(from, to, tokenId);\n\t}\n\n\tfunction _burn(uint256 tokenId) internal override(ERC721, ERC721URIStorage) {\n\t\tsuper._burn(tokenId);\n\t}\n\n\tfunction tokenURI(uint256 tokenId)\n\t\tpublic\n\t\tview\n\t\toverride(ERC721, ERC721URIStorage)\n\t\treturns (string memory)\n\t{\n\t\treturn super.tokenURI(tokenId);\n\t}\n\n\tfunction supportsInterface(bytes4 interfaceId)\n\t\tpublic\n\t\tview\n\t\toverride(ERC721, ERC721Enumerable)\n\t\treturns (bool)\n\t{\n\t\treturn super.supportsInterface(interfaceId);\n\t}\n\n\tfunction mint(address _to, string memory _tokenURI) public returns (bool) {\n\t\tuint256 _tokenId = totalSupply().add(1);\n\t\t_mint(_to, _tokenId);\n\t\t_setTokenURI(_tokenId, _tokenURI);\n\t\treturn true;\n\t}\n}\n",
  "sourcePath": "/Users/lukemcdonald/Sandbox/ethereum/blockchain-game/src/contracts/MemoryToken.sol",
  "compiler": {
    "name": "solc",
    "version": "0.8.6+commit.11564f7e.Emscripten.clang"
  },
  "schemaVersion": "3.4.1",
  "updatedAt": "2021-06-25T20:24:12.467Z",
  "networkType": "ethereum",
  "devdoc": {
    "kind": "dev",
    "methods": {
      "approve(address,uint256)": {
        "details": "See {IERC721-approve}."
      },
      "balanceOf(address)": {
        "details": "See {IERC721-balanceOf}."
      },
      "getApproved(uint256)": {
        "details": "See {IERC721-getApproved}."
      },
      "isApprovedForAll(address,address)": {
        "details": "See {IERC721-isApprovedForAll}."
      },
      "name()": {
        "details": "See {IERC721Metadata-name}."
      },
      "ownerOf(uint256)": {
        "details": "See {IERC721-ownerOf}."
      },
      "safeTransferFrom(address,address,uint256)": {
        "details": "See {IERC721-safeTransferFrom}."
      },
      "safeTransferFrom(address,address,uint256,bytes)": {
        "details": "See {IERC721-safeTransferFrom}."
      },
      "setApprovalForAll(address,bool)": {
        "details": "See {IERC721-setApprovalForAll}."
      },
      "symbol()": {
        "details": "See {IERC721Metadata-symbol}."
      },
      "tokenByIndex(uint256)": {
        "details": "See {IERC721Enumerable-tokenByIndex}."
      },
      "tokenOfOwnerByIndex(address,uint256)": {
        "details": "See {IERC721Enumerable-tokenOfOwnerByIndex}."
      },
      "totalSupply()": {
        "details": "See {IERC721Enumerable-totalSupply}."
      },
      "transferFrom(address,address,uint256)": {
        "details": "See {IERC721-transferFrom}."
      }
    },
    "version": 1
  },
  "userdoc": {
    "kind": "user",
    "methods": {},
    "version": 1
  }
}